:020000040800F2
:1000000000C00020495A00081D5900081F59000867
:100010002159000823590008255900080000000054
:100020000000000000000000000000002759000848
:1000300029590008000000002B5900082D5900081C
:10004000915A0008915A0008915A0008915A0008E4
:10005000915A0008915A0008915A0008915A0008D4
:10006000915A0008915A0008915A0008094E000858
:10007000915A0008915A0008915A0008915A0008B4
:10008000915A0008915A0008915A0008915A0008A4
:10009000915A0008915A0008915A000839590008ED
:1000A000915A0008915A0008915A0008915A000884
:1000B000915A0008395A0008A1580008915A0008BE
:1000C000915A0008915A0008915A0008915A000864
:1000D000915A0008915A0008915A0008915A000854
:1000E000AD590008915A0008915A0008915A000829
:1000F000915A0008915A0008915A0008915A000834
:10010000915A0008915A0008915A0008915A000823
:10011000915A0008915A0008915A0008915A000813
:10012000915A0008915A0008915A0008915A000803
:1001300000000000000000000000000000000000BF
:1001400000000000000000000000000000000000AF
:10015000000000000000000000000000000000009F
:10016000000000000000000000000000000000008F
:10017000000000000000000000000000000000007F
:10018000000000000000000000000000000000006F
:10019000000000000000000000000000000000005F
:1001A000000000000000000000000000000000004F
:1001B000000000000000000000000000000000003F
:1001C000000000000000000000000000000000002F
:1001D000000000000000000000000000000000001F
:0401E0005FF8E0F1F3
:1001E8000348044B834202D0034B03B118477047BE
:1001F80090000020900000200000000005480649FB
:10020800091A891001EBD171491002D0034B03B1CF
:100218001847704790000020900000200000000060
:1002280010B5064C237843B9FFF7DAFF044B13B136
:100238000448AFF300800123237010BD9000002014
:1002480000000000945A000808B5044B1BB104498B
:100258000448AFF30080BDE80840CFE70000000085
:1002680094000020945A000870B50D4E0D4D761B71
:10027800B61006D00024013455F8043B9847A6422E
:10028800F9D1094E094D05F001FC761BB61006D0D0
:100298000024013455F8043B9847A642F9D170BDB3
:1002A8002C5C00082C5C0008305C00082C5C000802
:1002B800F0B4860743D0541E002A3ED0CAB2034683
:1002C80002E014F1FF3438D303F8012B9D07F8D16D
:1002D800032C2BD9CDB245EA05250F2C45EA054557
:1002E80016D9A4F110073F0903F1200606EB0716FB
:1002F80003F1100242E9045542E902551032B242B4
:10030800F8D104F00F040137032C03EB07130DD9C0
:100318001E462246043A032A46F8045BFAD8221FEE
:1003280022F003020432134404F003042CB1C9B2CE
:100338001C4403F8011B9C42FBD1F0BC70471446D7
:100348000346C5E70CB470B56FF000459CB020AC0F
:1003580054F8042B094E02910691234602A90194F0
:100368000795CDE9045600F037F90022029B1A7070
:100378001CB0BDE8704002B0704700BF0802FFFF24
:100388000EB4034630B56FF000449CB01FA951F875
:10039800042B0A480A4D0293069301910B46006804
:1003A80002A90794CDE9044500F016F90022029B42
:1003B8001A701CB0BDE8304003B070470000002040
:1003C8000802FFFF20F0030110F00300C0F1000055
:1003D80051F8043B00F1040C4FEACC0C6FF000021A
:1003E8001CBF22FA0CF213434FF0010C4CEA0C2C00
:1003F8004CEA0C4CA3EB0C0222EA030212EACC12E0
:1004080004BF51F8043B0430F4D0C2F1000102EA01
:100418000102B2FA82F2C2F11F0200EBD200704769
:100428002DE9F0478E6880469E420C461D461746C9
:10043800086828D8B1F80CC01CF4906F31D0D1E905
:10044800041606EB460606EBD676A0EB0109013347
:1004580076104B44B342324684BF1E4632461CF4E3
:10046800806F20D01146404600F03CFD824670B3B4
:100478004A46216900F00AFCA38923F4906343F0FB
:100488008003A38114E01E462A46394600F074FC16
:100498000020A2682368961B2B44A6602360BDE851
:1004A800F0873546F0E7404600F080FD824650B1BF
:1004B800A6EB09030AEB09006661C4F810A02060E6
:1004C800A3602E46E0E72169404600F0B7FC0C2304
:1004D800C8F80030A3894FF0FF3043F04003A381F0
:1004E800DDE700BF2DE9F04F936883B09046002BFD
:1004F8006CD0176882460C46086808378D6842E059
:10050800A38913F4906F2DD0D4E9041505EB4505A4
:10051800A0EB010B05EBD575701C6D105844A84273
:100528002A4684BF05462A465B0536D511465046FD
:1005380000F0D8FC00283AD05A462169019000F012
:10054800A5FBA289019B22F4906242F08002A2815D
:10055800A5EB0B0203EB0B006561B346354623613F
:100568002060A2605A46494600F006FCD8F80830D8
:10057800A2682068551B58449E1BA5602060C8F8D7
:1005880008601EB3083757E90296AB46002EF9D02B
:10059800AE42B5D23546B346E4E7504600F006FD14
:1005A80003460028D4D12169504600F047FC0C23AB
:1005B80000224FF0FF30CAF80030A38943F040030F
:1005C800A381C8E9012203B0BDE8F08F0020C8F874
:1005D800040003B0BDE8F08F2DE9F04F8846898903
:1005E8009FB00D061446029004D5D8F81020002AB2
:1005F80000F017810020202130220593237801265E
:100608000B908DF83110914D8DF83220002B00F0B1
:100618009680252BA24603D119E0252B00F0C28035
:100628001AF8013F002BF8D1BAEB040B00F08780D1
:1006380022465B4641460298FFF7F2FE01307ED023
:100648000B9B9AF800205B440B93002A77D0002379
:100658004FF0FF320AF1010A0693CDE908338DF80D
:100668005B301C93079206E0CA46069B401B06FABD
:1006780000F018430690D146052219F8011B2846B8
:1006880000F0BEFACB460028EED1069BD80644BF40
:1006980020228DF85B20190748BF2B229AF80010FA
:1006A80048BF8DF85B202A2953D0A1F13003092BCC
:1006B80000F2AC80099A02E0CA4609F1010999F8EA
:1006C800001002EB820203EB4202A1F13003092B76
:1006D800CB46F1D90AF1020909922E2946D05C4C81
:1006E8000322204600F08CFA002858D04021001B35
:1006F800069A01FA00F00243069209F1010499F8FA
:1007080000300622194653488DF8303000F078FA48
:10071800002859D0504B002B49D005AB00934246D6
:100728004E4B06A90298AFF3008007467A1C06D004
:100738000B9B3B440B932378002B7FF46AAFB8F8EC
:100748000C305B064CBF4FF0FF300B981FB0BDE874
:10075800F08F059A11680432002905922EDB099161
:100768009AF801100AF102092E29B8D19BF8011054
:100778002A2933D1059B0BF102001A680433002A99
:10078800079205939BF802100BF1030940DB304CEC
:1007980083460322204600F033FA0028A6D14C46AF
:1007A800D946ACE7BAEB040B3FF451AF40E7059BE1
:1007B800073323F0070308330593B9E7494243F0A9
:1007C800020309910693CBE705AB00934246234BFE
:1007D80006A9029800F0D2F80746A7E70022A1F17F
:1007E80030000928079201D917E0D94699F8011075
:1007F80002EB820200EB4202A1F13000092809F164
:10080800010BF2D909F10209079268E7D34664E7B8
:100818004FF0FF328346079261E7CB4609F10109A1
:100828005DE74021039300F05DFB039BC8F80000DF
:10083800C8F8100018B14022C8F81420DAE60C23D2
:10084800029A4FF0FF30136080E700BFF05B0008AA
:10085800F85B0008FC5B00080000000029040008A1
:100868002DE9F0470C460969A56891468D42B8BF45
:100878000D46156094F8431006461F46DDF82080A3
:1008880011B16A1CC9F80020236899065FD5D9F808
:1008980000200232C9F80020236813F0060F194619
:1008A8001DD1E1688A1A002AD8BF194617DD00252C
:1008B80004F1190A05E0E368D9F800209B1AAB4255
:1008C8000CDD0123524639463046C047013005F158
:1008D8000105F0D14FF0FF30BDE8F087216894F8AA
:1008E8004330003318BF01238A060AD53021E218A5
:1008F80082F8431094F845105A1C224482F8431099
:10090800023304F1430239463046C0470130E1D092
:10091800D4E902202368D9F8005003F00603042B19
:1009280021691AD08A421FDD4FF00009521A9144FA
:1009380000251A3401E04D4516D0012322463946D8
:100948003046C047013005F10105F4D1C2E713F084
:10095800060F0CD1D9F80020A3E7401B8A4220EAF1
:10096800E079E3DC0028E3DC0020BDE8F08794F8B8
:100978004330003318BF0123C3E700BF2DE9F0431C
:100988000C46097E85B06E2906461746984604F13E
:10099800430C0C9D4AD00FD8632900F0FE8000F26A
:1009A800BE8000294ED0582940F0E08084F84510D8
:1009B8002268DFF844E212E0732900F0C5807AD893
:1009C8006F2900F0DA80702940F0D080206840F06C
:1009D800200222607823DFF824E284F845302B686F
:1009E800191D1B682960150602D4500648BF9BB222
:1009F800D10744BF42F020022260002B6CD1D4E919
:100A0800001284F84330002A21F020032360A260FA
:100A18007DDB21F0240121601021002A78D1654670
:100A280008294ED0ACEB050323610EE02B68226841
:100A3800181D6169286015061B6802D4500600F16C
:100A4800C6801960002365462361CDF800803B46C7
:100A580003AA21463046FFF703FF013020D02A467B
:100A6800236939463046C047013019D022680398B7
:100A78009207E36819D51A1A002A16DD002504F131
:100A8800190904E0E36803981A1AAA420DDD012344
:100A98004A4639463046C047013005F10105F1D1D3
:100AA8004FF0FF3005B0BDE8F0839842B8BF184654
:100AB80005B0BDE8F08375295FD0782956D1226842
:100AC80088E72368DB07ADD5626823699A42A9DC09
:100AD8003023013D2B70A5E71021002284F8432024
:100AE8006268002AA2602CDB206820F004002060E5
:100AF800002B92D06546B3FBF1F201FB12331EF8CE
:100B08000300134605F8010D002AF4D188E71021E7
:100B18009EF8003004F1420584F8423080E76429E9
:100B280001D0692922D120682B68010603F104024B
:100B380045D51B682A60002B4BDB0A21DFF8B8E09B
:100B4800CEE7002BD6D1E3E72B686268191D296030
:100B58001D680021284600F053F8002845D0401BA6
:100B680060602061002384F843306EE7012384F835
:100B78004210236104F14205F4E720682B6810F065
:100B8800800F03F1040213D01B682A606F290CBF81
:100B980008210A21DFF860E09FE701222B68191D70
:100BA8001B68296004F1420584F842302261D9E7C4
:100BB800400653BF1B682A601B882A60E6E7410687
:100BC80053BF1B682A60B3F900302A60B3E7198065
:100BD80038E72D2162685B42002A84F84310A2603E
:100BE80005DB0A21DFF810E07FE76068B9E7DFF886
:100BF80008E00A217EE700BF045C0008185C0008D2
:100C0800830770B4CDB23DD0541E0AB30378AB420B
:100C18001FD0431C05E014F1FF3419D30278AA420F
:100C280017D013F0030F184603F10103F3D1032C77
:100C380011D84CB30378AB420BD00444431C02E0F8
:100C48000278AA4205D09C42184603F10103F7D165
:100C5800002070BC704706460A0292B22A4342EA54
:100C68000242336830465340A3F1013121EA0303BD
:100C780013F0803F06F10406DCD1043C032C304617
:100C8800EFD8D6E71446D2E72046E2E7844641EAA1
:100C9800000313F0030349D1403A23D30B680360E0
:100CA8004B6843608B688360CB68C3600B690361E2
:100CB8004B6943618B698361CB69C3610B6A0362CA
:100CC8004B6A43628B6A8362CB6AC3620B6B0363B2
:100CD8004B6B43638B6B8363CB6BC3634030403197
:100CE800403ADBD230320BD30B6803604B68436069
:100CF8008B688360CB68C36010301031103AF3D230
:100D08000C3205D351F8043B40F8043B043AF9D2BD
:100D1800043208D0D2071CBF11F8013B00F8013B90
:100D280001D30B8803806046704700BF082A13D39D
:100D38008B07B1D010F00303AED0C3F10403D21A6D
:100D4800DB071CBF11F8013B00F8013BA4D331F8C5
:100D5800023B20F8023B9FE7043AD9D3013A11F845
:100D6800013B00F8013BF9D20B7803704B784370D4
:100D78008B788370604670478842F0B40DD98B1821
:100D880083420AD9841832B1224613F8014D994298
:100D980002F8014DF9D1F0BC70470F2A48D940EA52
:100DA80001039B0746D1A2F110031B0901F120079B
:100DB80007EB031701F1100400F1100554F8106C4B
:100DC800103445F8106C54F81C6C103545F81C6C40
:100DD80054F8186C45F8186C54F8146CBC4245F873
:100DE800146CEBD1013302F00F051B01032D1944DC
:100DF800034421D90F462C461E1F57F804CB043C48
:100E0800032C46F804CFF8D82C1F24F0030404342C
:100E18002344214402F00302002ABCD0013B0A44C7
:100E280011F8014B914203F8014FF9D1F0BC70471A
:100E38000346F1E70346F1E72A46EDE7002934D0F7
:100E480038B551F8043C0C1F002BB8BFE418054610
:100E580000F0E4F8224B1A682AB1A2420DD92168A1
:100E68006018824235D0626028461C60BDE8384070
:100E780000F0D6B8A34203D81A465368002BF9D11C
:100E880011685018A04218D010D821686018834201
:100E980003BFD3E900030918C4E900136360546071
:100EA8002846BDE8384000F0BBB870470C232846F8
:100EB8002B60BDE8384000F0B3B8206801445018F2
:100EC80083421160ECD1D3E900030144C2E9001365
:100ED800E6E7D2E900020144C4E90012C4E700BF12
:100EE800AC000020F8B5CD1C25F0030508350C2D05
:100EF80038BF0C25002D06463ADBA94238D82A4FC0
:100F080000F08CF83A6852B113685B1B04D433E0E4
:100F180023685B1B25D522465468002CF8D17968D4
:100F280000293BD02946304600F066F8431C2AD0F9
:100F3800C41C24F00304A04205D0211A304600F056
:100F48005BF801301FD02560304600F069F804F1E5
:100F58000B0020F00700231DC31A01D05A42E250AB
:100F6800F8BD0B2B0BD8A24215D063685360EBE792
:100F78000C2300203360F8BD0B2B0BD914462360DB
:100F88001C442560E0E70C233046336000F048F845
:100F98000020F8BD54683C601446D5E7304600F0A0
:100FA8002BF87860BEE700BFAC000020E1B1F8B5CF
:100FB8001446E2B106460D4600F034F8A04202D3CA
:100FC8002F463846F8BD21463046FFF78BFF0746C7
:100FD8000028F6D022462946FFF758FE3046294613
:100FE800FFF72CFF3846F8BD1146FFF77BBFFFF728
:100FF80025FF2746E5E700BF38B50023064C054620
:101008000846236000F016F8431C00D038BD23685A
:10101800002BFBD02B6038BD28060020704700BF8E
:10102800704700BF51F8043C181F002BBCBF0B5879
:10103800C0187047044A05491368002B08BF0B46BF
:101048001844106018467047B4000020300600208D
:1010580081F0004102E000BF83F0004330B54FEA61
:1010680041044FEA430594EA050F08BF90EA020FCE
:101078001FBF54EA000C55EA020C7FEA645C7FEA61
:10108800655C00F0E2804FEA5454D4EB5555B8BF84
:101098006D420CDD2C4480EA020281EA030382EAF5
:1010A800000083EA010180EA020281EA0303362D87
:1010B80088BF30BD11F0004F4FEA01314FF4801C5A
:1010C8004CEA113102D0404261EB410113F0004F6C
:1010D8004FEA03334CEA133302D0524263EB430323
:1010E80094EA050F00F0A780A4F10104D5F1200EC1
:1010F8000DDB02FA0EFC22FA05F2801841F100011C
:1011080003FA0EF2801843FA05F359410EE0A5F1EF
:1011180020050EF1200E012A03FA0EFC28BF4CF020
:10112800020C43FA05F3C01851EBE37101F00045D6
:1011380007D54FF0000EDCF1000C7EEB00006EEBE3
:101148000101B1F5801F1BD3B1F5001F0CD349086D
:101158005FEA30004FEA3C0C04F101044FEA4452C4
:1011680012F5800F80F09A80BCF1004F08BF5FEA4B
:10117800500C50F1000041EB045141EA050130BD2B
:101188005FEA4C0C404141EB010111F4801FA4F1CE
:101198000104E9D191F0000F04BF01460020B1FA23
:1011A80081F308BF2033A3F10B03B3F120020CDA5B
:1011B8000C3208DD02F1140CC2F10C0201FA0CF039
:1011C80021FA02F10CE002F11402D8BFC2F1200C9E
:1011D80001FA02F120FA0CFCDCBF41EA0C01904054
:1011E800E41AA2BF01EB0451294330BD6FEA04049D
:1011F8001F3C1CDA0C340EDC04F11404C4F1200288
:1012080020FA04F001FA02F340EA030021FA04F399
:1012180045EA030130BDC4F10C04C4F1200220FAF0
:1012280002F001FA04F340EA0300294630BD21FA2E
:1012380004F0294630BD94F0000F83F4801306BFF4
:1012480081F480110134013D4EE77FEA645C18BFE8
:101258007FEA655C29D094EA050F08BF90EA020F7F
:1012680005D054EA000C04BF1946104630BD91EA77
:10127800030F1EBF0021002030BD5FEA545C05D17A
:101288004000494128BF41F0004130BD14F58004B9
:101298003CBF01F5801130BD01F0004545F0FE412D
:1012A80041F470014FF0000030BD7FEA645C1ABF62
:1012B800194610467FEA655C1CBF0B46024650EA99
:1012C800013406BF52EA033591EA030F41F40021C5
:1012D80030BD00BF90F0000F04BF0021704730B54B
:1012E8004FF4806404F132044FF000054FF0000120
:1012F80050E700BF90F0000F04BF0021704730B5E1
:101308004FF4806404F1320410F0004548BF4042B5
:101318004FF000013EE700BF42004FEAE2014FEA0A
:1013280031014FEA02701FBF12F07F4393F07F4FE5
:1013380081F06051704732F07F4208BF704793F0E8
:101348007F4F04BF41F40021704730B54FF46074FB
:1013580001F0004521F000411CE700BF50EA0102FE
:1013680008BF704730B54FF000050AE050EA0102A7
:1013780008BF704730B511F0004502D5404261EB17
:1013880041014FF4806404F132045FEA915C3FF458
:10139800D8AE4FF003025FEADC0C18BF03325FEAF5
:1013A800DC0C18BF033202EBDC02C2F1200300FAA6
:1013B80003FC20FA02F001FA03FE40EA0E0021FACB
:1013C80002F11444BDE600BF70B54FF0FF0C4CF4B9
:1013D800E06C1CEA11541DBF1CEA135594EA0C0F6B
:1013E80095EA0C0F00F0DEF82C4481EA030621EAA6
:1013F8004C5123EA4C5350EA013518BF52EA0335E1
:1014080041F4801143F4801338D0A0FB02CE4FF092
:101418000005E1FB02E506F00042E0FB03E54FF0C2
:101428000006E1FB03569CF0000F18BF4EF0010EBA
:10143800A4F1FF04B6F5007F64F5407404D25FEAB6
:101448004E0E6D4146EB060642EAC62141EA555169
:101458004FEAC52040EA5E504FEACE2EB4F1FD0CAB
:1014680088BFBCF5E06F1ED8BEF1004F08BF5FEA29
:10147800500E50F1000041EB045170BD06F00046DB
:1014880046EA010140EA020081EA0301B4EB5C0488
:10149800C2BFD4EB0C0541EA045170BD41F4801180
:1014A8004FF0000E013C00F3AB8014F1360FDEBFA5
:1014B800002001F0004170BDC4F10004203C35DA81
:1014C8000C341BDC04F11404C4F1200500FA05F304
:1014D80020FA04F001FA05F240EA020001F00042A5
:1014E80021F0004110EBD37021FA04F642EB06011B
:1014F8005EEA430E08BF20EAD37070BDC4F10C0445
:10150800C4F1200500FA04F320FA05F001FA04F208
:1015180040EA020001F0004110EBD37041F10001F4
:101528005EEA430E08BF20EAD37070BDC4F12005FF
:1015380000FA05F24EEA020E20FA04F301FA05F267
:1015480043EA020321FA04F001F0004121FA04F20F
:1015580020EA020000EBD3705EEA430E08BF20EADF
:10156800D37070BD94F0000F0FD101F00046400019
:1015780041EB010111F4801F08BF013CF7D041EA9B
:10158800060195F0000F18BF704703F0004652009F
:1015980043EB030313F4801F08BF013DF7D043EA70
:1015A8000603704794EA0C0F0CEA135518BF95EA26
:1015B8000C0F0CD050EA410618BF52EA4306D1D1AD
:1015C80081EA030101F000414FF0000070BD50EACC
:1015D800410606BF1046194652EA430619D094EA56
:1015E8000C0F02D150EA013613D195EA0C0F05D140
:1015F80052EA03361CBF104619460AD181EA030194
:1016080001F0004141F0FE4141F470014FF000004B
:1016180070BD41F0FE4141F4780170BD70B54FF0E6
:10162800FF0C4CF4E06C1CEA11541DBF1CEA135566
:1016380094EA0C0F95EA0C0F00F0A7F8A4EB050448
:1016480081EA030E52EA03354FEA013100F088803F
:101658004FEA03334FF0805545EA131343EA126308
:101668004FEA022245EA111545EA10654FEA0026BD
:101678000EF000419D4208BF964244F1FD0404F576
:10168800407402D25B084FEA3202B61A65EB0305D2
:101698005B084FEA32024FF480104FF4002CB6EB8F
:1016A800020E75EB030E22BFB61A754640EA0C000F
:1016B8005B084FEA3202B6EB020E75EB030E22BF4F
:1016C800B61A754640EA5C005B084FEA3202B6EB90
:1016D800020E75EB030E22BFB61A754640EA9C004F
:1016E8005B084FEA3202B6EB020E75EB030E22BF1F
:1016F800B61A754640EADC0055EA060E18D04FEADD
:10170800051545EA16754FEA06164FEAC30343EA7C
:1017180052734FEAC2025FEA1C1CC0D111F4801F49
:101728000BD141EA00014FF000004FF0004CB6E742
:1017380011F4801F04BF01430020B4F1FD0C88BFE1
:10174800BCF5E06F3FF6AFAEB5EB030C04BFB6EBEC
:10175800020C5FEA500C50F1000041EB045170BDDF
:101768000EF0004E4EEA113114EB5C04C2BFD4EB0C
:101778000C0541EA045170BD41F480114FF0000E90
:10178800013C90E645EA060E8DE60CEA135594EA0C
:101798000C0F08BF95EA0C0F3FF43BAF94EA0C0F0F
:1017A8000AD150EA01347FF434AF95EA0C0F7FF484
:1017B80025AF104619462CE795EA0C0F06D152EAD8
:1017C80003353FF4FDAE1046194622E750EA4106BC
:1017D80018BF52EA43067FF4C5AE50EA41047FF4CD
:1017E8000DAF52EA43057FF4EBAE12E74FF0FF3C32
:1017F80006E000BF4FF0010C02E000BF4FF0010C03
:101808004DF804CD4FEA410C7FEA6C5C4FEA430C7B
:1018180018BF7FEA6C5C1BD001B050EA410C0CBFCA
:1018280052EA430C91EA030F02BF90EA020F00202C
:10183800704710F1000F91EA030F58BF994208BF93
:1018480090422CBFD8176FEAE37040F00100704750
:101858004FEA410C7FEA6C5C02D150EA013C07D1A7
:101868004FEA430C7FEA6C5CD6D152EA033CD3D0F2
:101878005DF8040B704700BF8446104662468C46EC
:101888001946634600E000BF01B5FFF7B7FF00281F
:1018980048BF10F1000F01BD4DF808EDFFF7F4FF48
:1018A8000CBF012000205DF808FB00BF4DF808EDD3
:1018B800FFF7EAFF34BF012000205DF808FB00BFF6
:1018C8004DF808EDFFF7E0FF94BF012000205DF818
:1018D80008FB00BF4DF808EDFFF7CEFF94BF0120CD
:1018E80000205DF808FB00BF4DF808EDFFF7C4FFC6
:1018F80034BF012000205DF808FB00BF4FEA410219
:1019080012F5001215D211D56FF47873B3EB625249
:1019180012D94FEAC12343F0004343EA505311F070
:10192800004F23FA02F018BF404270474FF0000002
:10193800704750EA013005D111F0004008BF6FF040
:10194800004070474FF00000704700BF4FEA410267
:10195800B2F1E04324BFB3F5001CDCF1FE5C0DD905
:1019680001F0004C4FEAC0024CEA5070B2F1004F4F
:1019780040EB830008BF20F00100704711F0804F52
:1019880021D113F13872BCBF01F00040704741F417
:1019980080114FEA5252C2F11802C2F1200C10FA1B
:1019A8000CF320FA02F018BF40F001004FEAC123FF
:1019B8004FEAD32303FA0CFC40EA0C0023FA02F3A3
:1019C8004FEA4303CCE77FEA625307D150EA013379
:1019D8001EBF4FF0FE4040F44000704701F0004049
:1019E80040F0FE4040F40000704700BF80F0004027
:1019F80002E000BF81F0004142001FBF5FEA4103DF
:101A080092EA030F7FEA226C7FEA236C6AD04FEADE
:101A18001262D2EB1363C1BFD21841404840414023
:101A2800B8BF5B42192B88BF704710F0004F40F4D5
:101A3800000020F07F4018BF404211F0004F41F4F1
:101A4800000121F07F4118BF494292EA030F3FD0BD
:101A5800A2F1010241FA03FC10EB0C00C3F12003D0
:101A680001FA03F100F0004302D5494260EB40005F
:101A7800B0F5000F13D3B0F1807F06D340084FEACA
:101A8800310102F10102FE2A51D2B1F1004F40EBBF
:101A9800C25008BF20F0010040EA03007047490027
:101AA80040EB000010F4000FA2F10102EDD1B0FAF2
:101AB80080FCACF1080CB2EB0C0200FA0CF0AABFE7
:101AC80000EBC25052421843BCBFD0401843704785
:101AD80092F0000F81F4000106BF80F4000001328B
:101AE800013BB5E74FEA41037FEA226C18BF7FEA62
:101AF800236C21D092EA030F04D092F0000F08BFA4
:101B08000846704790EA010F1CBF0020704712F08A
:101B18007F4F04D1400028BF40F00040704712F1C9
:101B280000723CBF00F50000704700F0004343F02E
:101B3800FE4040F4000070477FEA226216BF084664
:101B48007FEA23630146420206BF5FEA412390EA27
:101B5800010F40F4800070474FF0000304E000BF1D
:101B680010F0004348BF40425FEA000C08BF7047CE
:101B780043F0964301464FF000001CE050EA010292
:101B880008BF70474FF000030AE000BF50EA0102A7
:101B980008BF704711F0004302D5404261EB410194
:101BA8005FEA010C02BF84460146002043F0B643B9
:101BB80008BFA3F18053A3F50003BCFA8CF2083ADE
:101BC800A3EBC25310DB01FA02FC634400FA02FCE7
:101BD800C2F12002BCF1004F20FA02F243EB0200EE
:101BE80008BF20F00100704702F1200201FA02FC50
:101BF800C2F1200250EA4C0021FA02F243EB020043
:101C080008BF20EADC7070474FF0FF0C1CEAD05286
:101C18001EBF1CEAD15392EA0C0F93EA0C0F6FD047
:101C28001A4480EA010C400218BF5FEA41211ED025
:101C38004FF0006343EA501043EA5111A0FB013111
:101C48000CF00040B1F5000F3EBF490041EAD371E6
:101C58005B0040EA010062F17F02FD2A1DD8B3F162
:101C6800004F40EBC25008BF20F00100704790F0D1
:101C7800000F0CF0004C08BF49024CEA502040EA23
:101C880051207F3AC2BFD2F1FF0340EAC2507047E9
:101C980040F400004FF00003013A5DDC12F1190F27
:101CA800DCBF00F000407047C2F10002410021FA99
:101CB80002F1C2F1200200FA02FC5FEA310040F1B1
:101CC800000053EA4C0308BF20EADC70704792F02A
:101CD800000F00F0004C02BF400010F4000F013A62
:101CE800F9D040EA0C0093F0000F01F0004C02BF5D
:101CF800490011F4000F013BF9D041EA0C018FE7CC
:101D08000CEAD15392EA0C0F18BF93EA0C0F0AD0D1
:101D180030F0004C18BF31F0004CD8D180EA0100F7
:101D280000F00040704790F0000F17BF90F0004F90
:101D3800084691F0000F91F0004F14D092EA0C0F72
:101D480001D142020FD193EA0C0F03D14B0218BF05
:101D5800084608D180EA010000F0004040F0FE404B
:101D680040F40000704740F0FE4040F440007047E7
:101D78004FF0FF0C1CEAD0521EBF1CEAD15392EA66
:101D88000C0F93EA0C0F69D0A2EB030280EA010C56
:101D980049024FEA402037D04FF0805343EA1111EF
:101DA80043EA10130CF000408B4238BF5B0042F14D
:101DB8007D024FF4000C8B4224BF5B1A40EA0C00F2
:101DC800B3EB510F24BFA3EB510340EA5C00B3EB24
:101DD800910F24BFA3EB910340EA9C00B3EBD10F12
:101DE80024BFA3EBD10340EADC001B0118BF5FEA64
:101DF8001C1CE0D1FD2A3FF650AF8B4240EBC2508D
:101E080008BF20F0010070470CF0004C4CEA50204D
:101E18007F32C2BFD2F1FF0340EAC250704740F49C
:101E280000004FF00003013A37E792F0000F00F08E
:101E3800004C02BF400010F4000F013AF9D040EA0C
:101E48000C0093F0000F01F0004C02BF490011F4A0
:101E5800000F013BF9D041EA0C0195E70CEAD15398
:101E680092EA0C0F08D142027FF47DAF93EA0C0F7F
:101E78007FF470AF084676E793EA0C0F04D14B0263
:101E88003FF44CAF08466EE730F0004C18BF31F015
:101E9800004CCAD130F000427FF45CAF31F000430F
:101EA8007FF43CAF5FE700BF4FF0FF3C06E000BFA8
:101EB8004FF0010C02E000BF4FF0010C4DF804CDCB
:101EC8004FEA40024FEA41037FEA226C18BF7FEADB
:101ED800236C11D001B052EA530C18BF90EA010FDD
:101EE80058BFB2EB030088BFC81738BF6FEAE1706C
:101EF80018BF40F0010070477FEA226C02D15FEA08
:101F0800402C05D17FEA236CE4D15FEA412CE1D073
:101F18005DF8040B704700BF844608466146FFE73A
:101F28000FB5FFF7C9FF002848BF10F1000F0FBD1C
:101F38004DF808EDFFF7F4FF0CBF012000205DF815
:101F480008FB00BF4DF808EDFFF7EAFF34BF01209A
:101F580000205DF808FB00BF4DF808EDFFF7E0FF33
:101F680094BF012000205DF808FB00BF4DF808ED84
:101F7800FFF7D2FF94BF012000205DF808FB00BFE7
:101F88004DF808EDFFF7C8FF34BF012000205DF8C9
:101F980008FB00BF4FEA4002B2F1FE4F0FD34FF0EB
:101FA8009E03B3EB12620DD94FEA002343F00043BE
:101FB80010F0004F23FA02F018BF404270474FF06C
:101FC8000000704712F1610F01D1420205D110F0F3
:101FD800004008BF6FF0004070474FF000007047A6
:101FE80082B0084B1B68084AA2FB03235B0A00FB6C
:101FF80003F0019000BF019B5A1E0192002BF9D1FA
:1020080002B0704764000020D34D621070B582B0F2
:102018000446036813F0010F2CD0AB4B5B6803F048
:102028000C03042B1DD0A84B5B6803F00C03082B92
:1020380012D06368B3F5803F41D0002B55D103F12E
:10204800804303F504331A6822F480321A601A6850
:1020580022F480221A6037E09B4B5B6813F4803FC0
:10206800E7D0994B1B6813F4003F03D06368002B3B
:1020780000F0AE81236813F0020F76D0924B5B68B4
:1020880013F00C0F5FD0904B5B6803F00C03082B28
:1020980054D02369002B00F08A808C4B01221A60EF
:1020A80001F078F90546884B1B6813F0020F75D1CB
:1020B80001F070F9401B0228F5D903208BE1824A10
:1020C800136843F480331360636843B301F062F923
:1020D80005467D4B1B6813F4003FCBD101F05AF93C
:1020E800401B6428F5D9032075E1B3F5A02F09D06A
:1020F800754B1A6822F480321A601A6822F480221A
:102108001A60E1E703F18043A3F53C331A6842F40F
:1021180080221A601A6842F480321A60D4E701F00B
:1021280039F90546684B1B6813F4003FA2D001F04B
:1021380031F9401B6428F5D903204CE1624B5B68F8
:1021480013F4803FA5D1604B1B6813F0020F04D035
:102158002369012B01D001203DE15B4A136823F07C
:10216800F803616943EAC1031360236813F0080F99
:1021780032D0A369002B5BD0554B01221A6001F0C5
:1021880009F90546504B5B6A13F0020F21D101F0A3
:1021980001F9401B0228F5D903201CE14A4A1368BB
:1021A80023F0F803616943EAC1031360DDE7474B95
:1021B80000221A6001F0EEF80546434B1B6813F045
:1021C800020FD2D001F0E6F8401B0228F5D903200F
:1021D80001E10120FFF704FF236813F0040F00F06A
:1021E8009780394BDB6913F0805F33D1364BDA695E
:1021F80042F08052DA61DB6903F080530193019B5E
:102208000125344B1B6813F4807F25D0E368012B2C
:1022180036D0002B4CD103F1804303F504331A6AFE
:1022280022F001021A621A6A22F004021A622CE0F1
:10223800274B00221A6001F0ADF80546224B5B6A75
:1022480013F0020FC8D001F0A5F8401B0228F5D9F9
:102258000320C0E00025D4E71E4A136843F48073C6
:10226800136001F097F806461A4B1B6813F4807F39
:10227800CCD101F08FF8801B6428F5D90320AAE09F
:10228800114A136A43F001031362E36873B301F060
:1022980081F806460C4B1B6A13F0020F37D101F088
:1022A80079F8801B41F288339842F3D9032092E0F1
:1022B800052B11D0044B1A6A22F001021A621A6A1D
:1022C80022F004021A62E0E70010024000004242D5
:1022D8008004424200700040414B1A6A42F00402F6
:1022E8001A621A6A42F001021A62CEE701F052F845
:1022F80006463B4B1B6A13F0020F08D001F04AF860
:10230800801B41F288339842F3D9032063E0E5B992
:10231800E369002B5ED0324A526802F00C02082AA8
:102328005BD0022B17D02F4B00221A6001F032F835
:1023380004462B4B1B6813F0007F47D001F02AF8A6
:10234800001B0228F5D9032045E0254AD36923F06C
:102358008053D361DCE7234B00221A6001F01AF89E
:1023680005461F4B1B6813F0007F06D001F012F8DA
:10237800401B0228F5D903202DE0236AB3F5803FDE
:102388001AD017494B6823F47413226A606A02430F
:1023980013434B60134B01221A6000F0FBFF044605
:1023A8000F4B1B6813F0007F0ED100F0F3FF001BEA
:1023B8000228F5D903200EE0094A536823F40033B4
:1023C800A1680B435360DCE7002004E0002002E032
:1023D800012000E0002002B070BD0120FBE700BF33
:1023E800001002406000424210B487B0164C94E8D6
:1023F8000F000DF1180C0CE90F00238AADF804301A
:10240800124B5B6803F00C02082A1AD1C3F383420B
:10241800624412F8100C13F4803F05D10C4B03FBF7
:1024280000F007B010BC7047084B5B68C3F340432B
:10243800634413F8142C074BB3FBF2F300FB03F0CF
:10244800EFE70448EDE700BFAC5A0008001002406F
:1024580000093D0000127A00594B1B6803F007037E
:102468008B420CD2564A136823F007030B431360C0
:10247800136803F007038B4201D00120704770B541
:10248800036813F0020F06D04E4A536823F0F00396
:102498008468234353600C460546036813F0010F14
:1024A80052D04368012B23D0022B28D0454A12680A
:1024B80012F0020F00F0828042494A6822F00302BB
:1024C80013434B6000F066FF06466B68012B1DD076
:1024D800022B2AD03B4B5B6813F00C0F34D000F072
:1024E80059FF801B41F288339842F3D9032064E0F6
:1024F800344A126812F4003FDED101205DE0314A0F
:10250800126812F0007FD7D1012056E02D4B5B688E
:1025180003F00C03042B17D000F03CFF801B41F2A2
:1025280088339842F2D9032047E0264B5B6803F0D2
:102538000C03082B08D000F02DFF801B41F28833D4
:102548009842F2D9032038E01D4B1B6803F00703BB
:10255800A3420CD91A4A136823F0070323431360D4
:10256800136803F00703A34201D0012025E02B687C
:1025780013F0040F06D0134A536823F4E063E968A4
:102588000B4353602B6813F0080F07D00D4A5368AC
:1025980023F46053296943EAC1035360FFF724FF1A
:1025A800084B5B68C3F30313074AD35CD840074B57
:1025B8001860002000F0BEFE002070BD0120FCE77E
:1025C8000020024000100240C05A000864000020A9
:1025D800014B1868704700BF6400002008B5FFF77A
:1025E800F7FF044B5B68C3F30223034AD35CD8406C
:1025F80008BD00BF00100240D05A000808B5FFF718
:10260800E7FF044B5B68C3F3C223034AD35CD8409B
:1026180008BD00BF00100240D05A000830B4036A59
:1026280023F001030362056A4268846924F0730495
:102638000B681C4325F002058B682B43104DA842FC
:1026480003D005F50065A84205D123F00803CD683D
:102658002B4323F004030A4DA84203D005F5006577
:10266800A84205D122F440724D6915438A692A436C
:10267800426084614A684263036230BC704700BFAD
:10268800002C014030B4036A23F480730362036AA8
:102698004268C46924F073040D682C4323F4007362
:1026A8008D6843EA0523124DA84203D005F500655D
:1026B800A84206D123F40063CD6843EA052323F436
:1026C80080630B4DA84203D005F50065A84207D1E9
:1026D80022F440524D6942EA05128D6942EA051218
:1026E8004260C4614A68C263036230BC704700BF7D
:1026F800002C014030B4036A23F480530362036A58
:102708004468C26922F4E6420D6842EA052223F4CD
:1027180000538D6843EA0533094DA84203D005F5F7
:102728000065A84204D124F480444D6944EA851424
:102738004460C2614A680264036230BC704700BFEB
:10274800002C014010B4036A046A24F001040462F6
:10275800846924F0F00444EA021223F00A030B43CC
:102768008261036210BC704710B4036A23F010033F
:1027780003628469036A24F4704444EA023223F051
:10278800A00343EA01138261036210BC70478368A7
:1027980023F0700341F0070119438160704710B4BA
:1027A800846824F47F4442EA03230B432343836071
:1027B80010BC704710B50468A26822F070024B681C
:1027C800134323F007030A681343A3604B68502B95
:1027D8001ED00AD9602B21D0702B05D10B698A68CD
:1027E800C9680068FFF7DBFF10BD402BFCD1036808
:1027F8001C6A1A6A22F001021A620268936923F0BD
:10280800F003096943EA0113936103681C62EBE76B
:102818000A6989680068FFF795FFE5E70A6989682A
:102828000068FFF7A1FFDFE77047022380F83D301B
:102838000268136843F001031360012380F83D30F8
:10284800002070470268D36843F00103D360026830
:10285800136843F00103136000207047704790F835
:102868003C30012B7DD010B50446012380F83C3064
:10287800022380F83D300268936823F47F4323F0F5
:10288800770393600B68402B57D010D9702B3ED03C
:102898001FD8502B47D0602B32D1CA6849680068CE
:1028A800FFF762FF60212068FFF771FF28E0102B17
:1028B8004DD008D9202B4FD0302B21D130210068A2
:1028C800FFF765FF1CE0DBB900210068FFF75FFF39
:1028D80016E0B3F5805F0ED0B3F5005F10D1CB687A
:1028E8004A6889680068FFF75AFF2268936843F4CA
:1028F8008043936004E00268936823F007039360C1
:10290800012384F83D30002084F83C0010BDCB68DA
:102918004A6889680068FFF742FF2268936843F0B5
:1029280077039360ECE7CA6849680068FFF70AFF15
:1029380050212068FFF72BFFE2E7CA684968006862
:10294800FFF700FF40212068FFF721FFD8E710219B
:102958000068FFF71CFFD3E720210068FFF717FF87
:10296800CEE70220704738B590F83C30012B18D0DC
:102978000446012580F83C50022380F83D30FFF7DB
:1029880019FF2268D36823F04003D3602268D36814
:1029980023F48043D36084F83D50002084F83C0041
:1029A80038BD0220FCE7704770477047704710B584
:1029B800044603681A6912F0020F11D0DA6812F09F
:1029C800020F0DD06FF002021A610123037703682A
:1029D8009B6913F0030F70D0FFF7E6FF00232377FE
:1029E80023681A6912F0040F12D0DA6812F0040F83
:1029F8000ED06FF004021A610223237723689B69C3
:102A080013F4407F5FD02046FFF7CEFF00232377E3
:102A180023681A6912F0080F12D0DA6812F0080F4A
:102A28000ED06FF008021A61042323772368DB694C
:102A380013F0030F4ED02046FFF7B6FF002323778D
:102A480023681A6912F0100F12D0DA6812F0100F0A
:102A58000ED06FF010021A61082323772368DB6910
:102A680013F4407F3DD02046FFF79EFF00232377D5
:102A780023681A6912F0010F03D0DA6812F0010F07
:102A880036D123681A6912F0800F03D0DA6812F081
:102A9800800F34D123681A6912F0400F03D0DA6826
:102AA80012F0400F32D123681A6912F0200F03D0B8
:102AB800DA6812F0200F30D110BDFFF774FF2046FE
:102AC800FFF773FF8AE72046FFF76DFF2046FFF701
:102AD8006CFF9BE72046FFF766FF2046FFF765FF80
:102AE800ACE72046FFF75FFF2046FFF75EFFBDE734
:102AF8006FF001021A61204602F030F9C1E76FF069
:102B080080021A61204600F0D3F9C3E76FF0400253
:102B18001A612046FFF74AFFC5E76FF020021A61E5
:102B2800204600F0C4F9C7E70368244A904212D04F
:102B380002F5006290420ED0B0F1804F0BD0A2F5A2
:102B48009832904207D002F58062904203D002F595
:102B58008062904203D123F070034A681343174AF6
:102B6800904212D002F5006290420ED0B0F1804F30
:102B78000BD0A2F59832904207D002F580629042BD
:102B880003D002F58062904203D123F44073CA68EF
:102B9800134323F080034A69134303608B68C362BD
:102BA8000B688362054B984203D003F50063984293
:102BB80001D10B690363012343617047002C014075
:102BC800A8B110B5044690F83D305BB1022384F8F3
:102BD8003D30211D2068FFF7A7FF012384F83D3011
:102BE800002010BD80F83C30FFF71EFEEEE7012004
:102BF8007047A8B110B5044690F83D305BB1022388
:102C080084F83D30211D2068FFF78EFF012384F8EA
:102C18003D30002010BD80F83C30FFF71FFEEEE786
:102C28000120704730B4036A23F010030362036A7B
:102C38004468826922F4E6420D6842EA052223F0DC
:102C480020038D6843EA0513114DA84203D005F50A
:102C58000065A84206D123F08003CD6843EA051336
:102C680023F040030A4DA84203D005F50065A842A9
:102C780007D124F440644D6944EA85048D6944EA27
:102C88008504446082614A688263036230BC70478D
:102C9800002C014038B590F83C30012B66D00D4629
:102CA8000446012380F83C30022380F83D300C2A8A
:102CB8001AD8DFE802F00719191920191919341957
:102CC800191947000068FFF7A9FC2268936943F0C7
:102CD800080393612268936923F0040393612268CF
:102CE800936929690B439361012384F83D300020DF
:102CF80084F83C0038BD0068FFF794FF22689369A8
:102D080043F4006393612268936923F480639361B9
:102D180022689369296943EA01239361E4E700681B
:102D2800FFF7B0FC2268D36943F00803D361226837
:102D3800D36923F00403D3612268D36929690B435B
:102D4800D361D1E70068FFF7D5FC2268D36943F463
:102D58000063D3612268D36923F48063D361226856
:102D6800D369296943EA0123D361BDE70220C1E79A
:102D780010B4012303FA01F4036A23EA040303628B
:102D8800036A8A401343036210BC704710B50446B7
:102D980001220068FFF7ECFF2368094A934203D039
:102DA80002F50062934203D15A6C42F400425A641D
:102DB8002268136843F001031360002010BD00BFB0
:102DC800002C014010B4042303FA01F4036A23EA37
:102DD80004030362036A8A401343036210BC70470A
:102DE80010B5044604220068FFF7ECFF2268536C14
:102DF80043F4004353642268136843F001031360EB
:102E0800002010BD90F83C30012B25D0012380F81C
:102E18003C30CB6823F440738A68134323F48063FF
:102E28004A68134323F400630A68134323F4805366
:102E38000A69134323F400534A69134323F4804374
:102E48008A69134323F4004313430268536400233D
:102E580080F83C30184670470220704790F83C30A4
:102E6800012B22D030B4012280F83C20022380F8C4
:102E78003D300468636823F0700363600468636826
:102E88000D682B4363600468A36823F08003A36084
:102E98000468A36849680B43A36080F83D200023B9
:102EA80080F83C30184630BC7047022070477047A5
:102EB80070470000034690F82420012A20D0012200
:102EC80080F824200268906810F0010F07D10D489F
:102ED800806810F0010F02D10B48824208D09A6A2C
:102EE80042F020029A620120002283F824207047D1
:102EF800506820F470200968014351600020F3E70E
:102F0800022070470028014000240140074AD36886
:102F180023F4E0631B041B0C000200F4E060184378
:102F280040F0BF6040F40030D060704700ED00E032
:102F380030B4174BDB68C3F30223C3F10704042C36
:102F480028BF04241D1D062D18D9033B4FF0FF355B
:102F580005FA04F421EA0401994005FA03F322EA88
:102F68000303194300280BDB0901C9B200F16040D3
:102F780000F5614080F8001330BC70470023E5E796
:102F880000F00F000901C9B2024B1954F4E700BF61
:102F980000ED00E014ED00E000F01F0240090123FD
:102FA8009340024A42F82030704700BF00E100E039
:102FB8000138B0F1807F0AD2064B5860064AF021EA
:102FC80082F823100020986007221A6070470120B9
:102FD800704700BF10E000E000ED00E0042805D0D5
:102FE800054A136823F0040313607047024A136804
:102FF80043F004031360704710E000E0704708B521
:10300800FFF7FCFF08BD0000F0B482B0002635468B
:10301800ABE0002C63D0012C00D1CE68FF2B72D816
:103028008446FF2B72D8AC00DCF800200F27A7409D
:1030380022EA070206FA04F42243CCF800204A6880
:1030480012F0805F00F09080654A946944F00104B2
:103058009461926902F001020192019AAC08A71CDE
:10306800604A52F827C005F0030297000F22BA40C1
:103078002CEA020C5C4A90424ED002F580629042E3
:1030880000F08B8002F58062904200F0888002F5A3
:103098008062904200F0858002F58062904200F0E4
:1030A800828002F58062904234D0062235E04F4F8C
:1030B800BC4214D00BD94E4FBC4210D007F5803714
:1030C800BC420CD0A7F58017BC42A7D107E0A7F5F2
:1030D8008017BC4203D007F58037BC429ED18C686C
:1030E8007CB1012C08D04261082697E7CE680836E3
:1030F80094E7CE680C3691E7026108268EE7002631
:103108008CE704268AE700F1040C8AE7A5F1080495
:10311800A40089E7052200E00022BA4042EA0C0236
:103128000234304F47F824204A6812F4803F3CD0DC
:10313800304C22681A4322604A6812F4003F3AD0A1
:103148002C4C62681A4362604A6812F4801F38D0B7
:10315800284CA2681A43A2604A6812F4001F36D0AD
:10316800244CE2681343E36001350F2D35D8012262
:10317800AA400B6813409A42F6D14C68122CB8D07A
:1031880095D8022CB2D07FF644AF032CB7D0112CBF
:103198007FF444AFCE68043640E70122BDE702223F
:1031A800BBE70322B9E70422B7E7124C226822EAF8
:1031B80003022260C0E70F4C626822EA03026260E1
:1031C800C2E70C4CA26822EA0302A260C4E7094CD9
:1031D800E26822EA0303E360C6E702B0F0BC704786
:1031E80000100240000001400008014000002110CA
:1031F80000003110000401408368194201D1002009
:1032080070470120704712B90904016170470161D4
:103218007047C3685940C1607047000070B582B0FC
:103228000446036813F0010F34D03E4BDB6913F0FA
:10323800805F48D13B4BDA6942F08052DA61DB6942
:1032480003F080530193019B0125374B1B6813F44E
:10325800807F3AD0334B1B6A13F4407311D06268F5
:1032680002F440729A420CD02E4A136A23F440703A
:103278002E4901260E6000260E60106213F0010F21
:1032880037D1284A136A23F4407361680B431362E9
:10329800002D3FD1236813F0020F06D0214A53684E
:1032A80023F44043A1680B435360236813F0100FC5
:1032B80035D01C4A536823F4800361690B4353607B
:1032C800002002B070BD0025BFE7174A136843F419
:1032D8008073136000F05EF80646134B1B6813F406
:1032E800807FB7D100F056F8801B6428F5D90320F9
:1032F800E7E700F04FF806460A4B1B6A13F0020F87
:10330800BFD100F047F8801B41F288339842F3D9C7
:103318000320D6E7D36923F08053D361BAE70020AE
:10332800CFE700BF00100240007000404004424256
:103338007047000010B50446074B1868074BA3FBFD
:1033480000308009FFF734FE002221464FF0FF309D
:10335800FFF7EEFD002010BD64000020D34D621081
:1033680008B5074A136843F0100313600320FFF7FA
:10337800CDFD0020FFF7DEFFFFF7DAFF002008BDD4
:1033880000200240024A136801331360704700BFEF
:10339800F8000020014B1868704700BFF8000020B3
:1033A80030B583B00190FFF7F5FF0546019CB4F1F5
:1033B800FF3F00D00134FFF7EDFF401BA042FAD3D6
:1033C80003B030BD7047000030B482B000230193D1
:1033D80090F82430012B00F08B800246012380F8FE
:1033E80024304B68062B29D80568686B03EB8303E8
:1033F800053B1F249C4020EA04000C6804FA03F3F0
:1034080003436B630B68092B38D91568E86803EB2D
:1034180043031E3B07249C4020EA04008C6804FAFE
:1034280003F30343EB600B68103B012B34D90020F6
:10343800002382F8243002B030BC70470C2B0ED821
:103448000568286B03EB8303233B1F249C4020EA79
:1034580004000C6804FA03F303432B63D2E70568FE
:10346800E86A03EB8303413B1F249C4020EA0400E5
:103478000C6804FA03F30343EB62C3E71568286991
:1034880003EB430307249C4020EA04008C6804FAF9
:1034980003F303432B61C6E713681648834205D03C
:1034A800936A43F0200393620120C1E7986810F4FF
:1034B800000F1BD1986840F4000098600B68102B2F
:1034C80001D00020B4E70C4B1B680C49A1FB031387
:1034D8009B0C03EB83035900019102E0019B013B24
:1034E8000193019B002BF9D10020A1E700209FE761
:1034F8000220A0E7002401406400002083DE1B4373
:1035080030B583B00023019303689A6812F0010F65
:103518002ED19A6842F001029A60174B1B68174A2D
:10352800A2FB03239B0C019302E0019B013B019347
:10353800019B002BF9D10446FFF72CFF05462368B1
:103548009B6813F0010F11D1FFF724FF401B0228DD
:10355800F5D9A36A43F01003A362E36A43F00103B9
:10356800E362002384F82430012002E0002000E018
:10357800002003B030BD00BF6400002083DE1B4381
:1035880090F82430012B6AD010B50446012380F846
:103598002430FFF7B5FF024600285BD1A36A23F465
:1035A800407323F0010343F48073A36223682D4919
:1035B8008B4227D0A16A21F48011A162596811F4C5
:1035C800806F05D0A16A21F4405141F48051A16275
:1035D800A16A11F4805F2BD0E16A21F00601E16253
:1035E800002184F824106FF002011960236899689B
:1035F80001F46021B1F5602F1DD0996841F4801164
:1036080099602AE0A1F58061496811F4702FD1D042
:10361800A16A41F48011A1621349496811F4806FCD
:10362800D6D0A16A21F4405141F48051A162CFE77C
:103638000021E162D4E70B498B4204D0996841F438
:10364800A001996009E0A1F58061496811F4702F23
:10365800D3D1F3E7002384F82430104610BD0222AA
:1036680010467047002801400024014038B503681F
:103678009A6812F0010F01D1002038BD04469A68FB
:1036880022F001029A60FFF785FE054623689B68D1
:1036980013F0010F0ED0FFF77DFE401B0228F5D96D
:1036A800A36A43F01003A362E36A43F00103E362F1
:1036B8000120E2E70020E0E7002800F08A8070B5EA
:1036C8000446836A002B36D02046FFF7CFFFA36A53
:1036D80013F0100377D1002875D1A26A22F488521A
:1036E80022F0020242F00202A262626825683A49A8
:1036F8008D4226D0E1690A43E66842EA4602A1689B
:10370800B1F5807F27D0012922D06169012925D010
:10371800696821F469410B436B6021688D682F4B00
:103728002B4013438B60A368B3F5807F27D0012B10
:1037380025D0002126E0C36280F82430FFF742FE3E
:10374800C2E7E169B1F5402FD5D14FF40021D2E7A6
:103758004FF48073D9E74FF48073D6E736B9A1697F
:10376800013943EA413343F40063D1E7A16A41F0E8
:103778002001A162E16A41F00101E162C8E7236921
:10378800013B19052568EB6A23F470030B43EB62D0
:1037980023689968124B0B409A420BD0A36A23F016
:1037A800120343F01003A362E36A43F00103E362E8
:1037B80001200DE00023E362A36A23F0030343F032
:1037C8000103A36204E0A36A43F01003A36201208B
:1037D80070BD0120704700BF003C0140FDF7E1FFCC
:1037E800FE0E1FFF0268D36823F0C003D3602023B6
:1037F80080F8393070470268D36823F49073D36037
:103808000268536923F001035361202380F83A309A
:10381800704700002DE9F84305460268136923F450
:103828004053C1680B4313618368026913434269BB
:1038380013430168CA6822F4B05222F00C02134301
:10384800CB600268536923F4407381690B43536169
:103858000268594B9A4257D0FEF7C0FE00EB800031
:1038680000EB80006C68A400B0FBF4F4534FA7FB96
:10387800043464092601FEF7B1FE00EB800000EB7A
:1038880080006C68A400B0FBF4F9FEF7A7FE00EB1B
:10389800800000EB80006C68A400B0FBF4F4A7FB88
:1038A800043464094FF0640808FB1494240132348A
:1038B800A7FB0434640904F0F0043444FEF78EFED8
:1038C80000EB800000EB80006E68B600B0FBF6F6F7
:1038D800FEF784FE00EB800000EB80006B689B0025
:1038E800B0FBF3F0A7FB0030400908FB10684FEA73
:1038F800081808F13208A7FB0837C7F343172B68E5
:1039080027449F60BDE8F883FEF778FE00EB80004F
:1039180000EB80006C68A400B0FBF4F4274FA7FB11
:10392800043464092601FEF769FE00EB800000EB11
:1039380080006C68A400B0FBF4F9FEF75FFE00EBB2
:10394800800000EB80006C68A400B0FBF4F4A7FBD7
:10395800043464094FF0640808FB149424013234D9
:10396800A7FB0434640904F0F0043444FEF746FE6F
:1039780000EB800000EB80006E68B600B0FBF6F646
:10398800FEF73CFE00EB800000EB80006B689B00BC
:10399800B0FBF3F0A7FB0030400908FB10684FEAC2
:1039A800081808F13208A7FB0837C7F343172B6834
:1039B80027449F60A6E700BF003801401F85EB51F0
:1039C800704758B310B5044690F839300BB3242328
:1039D80084F839302268D36823F40053D360204632
:1039E800FFF718FF2268136923F4904313612268D4
:1039F800536923F02A0353612268D36843F40053C0
:103A0800D3600020E063202384F8393084F83A300A
:103A180010BD80F83830FFF7D3FFD8E70120704792
:103A280038B590F83940E4B2202C31D1002931D092
:103A3800002A31D090F83830012B2FD01346044695
:103A4800012280F8382001628384C3840025C5637D
:103A5800212280F83920026B11489062226B1148AC
:103A6800D062226B10481063226B556322680432BF
:103A7800206B00F0CDF823686FF040021A6084F8DC
:103A880038502268536943F080035361284600E0A8
:103A9800022038BD0120FCE70120FAE70220F8E700
:103AA800B73A0008E93A0008F53A0008704708B53F
:103AB800436A0268126812F0200F0CD10022DA84DF
:103AC80019684A6922F080024A611A68D36843F08B
:103AD8004003D36008BD1846FFF7E8FFFAE77047D0
:103AE80008B5406AFFF7FBFF08BD704710B5446A88
:103AF80023685A6994F83930DBB2212B10D0236837
:103B08005A6902F0400294F83A30DBB2222B11D005
:103B1800E36B43F01003E3632046FFF7E6FF10BDB5
:103B280002F08002002AEAD00023E3842046FFF74F
:103B380059FEE4E7002AEBD00023E3852046FFF78F
:103B48005AFEE5E770B4066CC56B0124B4406C609E
:103B5800046863604368102B05D0036899600368A4
:103B6800DA6070BC704703689A600368D960F8E748
:103B780000283FD010B4034601681F4A91422ED84E
:103B88001E4A0A441E49A1FB02121209920002644D
:103B98001C4AC263022283F821201868016821F4B4
:103BA8007F5121F030015A689C682243DC68224327
:103BB8001C6922435C6922439C692243DC692243D5
:103BC8000A43026000209862D862186358639863B9
:103BD800012283F8212083F8200010BC70470A4A8C
:103BE8000A440749A1FB0212120992000264074A1B
:103BF800C263CFE70120704707040240F8FFFDBF0A
:103C0800CDCCCCCC00000240F8FBFDBF0004024044
:103C180038B590F82040012C32D0012480F820409B
:103C280090F82140012C04D0002380F82030022095
:103C380038BD0446022084F821000020A0632568CE
:103C4800286820F0010028602046FFF77BFFE36A20
:103C58005BB12268136843F00E031360226813688F
:103C680043F0010313600020E2E72268136823F0A1
:103C7800040313602268136843F00A031360EDE736
:103C88000220D5E70F4B1A6842F001021A60596802
:103C98000D4A0A405A601A6822F0847222F480326F
:103CA8001A601A6822F480221A605A6822F4FE0206
:103CB8005A604FF41F029A60044B4FF000629A60FA
:103CC800704700BF001002400000FFF800ED00E060
:103CD80030B589B02A4B5A6942F001025A615A69D3
:103CE80002F001020192019A9A6942F008029A616F
:103CF8009A6902F008020292029ADA6942F4802272
:103D0800DA61DB6903F480230393039B1D481E4D8E
:103D180005604FF4E133436000248460C4600461AB
:103D28008461C46108234361FFF74BFE6B6943F06C
:103D380080036B61012306934FF48063049302238D
:103D480005930323079304A91048FFF75DF910486A
:103D580005F5DC351C35056010234360846080233D
:103D6800C360046144618461C461FFF701FF094BCA
:103D7800AB606C60084B70225A6009B030BD00BF60
:103D8800001002408401002000480040000C01405F
:103D98008802002004480040000002402DE9F04F4E
:103DA80089B0884B9A6942F004029A619A6902F0D4
:103DB80004020192019A9A6942F008029A619A698A
:103DC80002F008020292029A9A6942F010029A617D
:103DD8009B6903F010030393039B4FF00009CDF890
:103DE8001890022607964FF0200ACDF810A0764BBF
:103DF800059304A97548FFF707F94023049304A91C
:103E08007248FFF701F94FF08008CDF8108004A937
:103E18006E48FFF7F9F84FF48064049404A96C48DD
:103E2800FFF7F2F84FF40063049304A96848FFF71A
:103E3800EBF84FF48055049504A96548FFF7E4F8BA
:103E4800CDF8149004950127069704A96148FFF757
:103E5800DBF8CDF81890049604A95E48FFF7D4F86B
:103E680005974FF00409CDF8109004A95748FFF7BB
:103E7800CBF8102504950DEB05015648FFF7C4F85B
:103E8800CDF810A00DEB05015248FFF7BDF803234C
:103E9800059304970DEB05014D48FFF7B5F8049716
:103EA8000DEB05014B48FFF7AFF84FF0080BCDF8C5
:103EB80010B00DEB05014648FFF7A6F804960DEB88
:103EC80005014348FFF7A0F804950DEB05014048AC
:103ED800FFF79AF8CDF810A00DEB05013C48FFF765
:103EE80093F8CDF810900DEB05013948FFF78CF8E1
:103EF800CDF810B00DEB05013648FFF785F8CDF881
:103F080010900DEB05013348FFF77EF80596402326
:103F180004930DEB05012E48FFF776F8CDF81080D5
:103F28000DEB05012A48FFF76FF84FF48079CDF8BB
:103F380010900DEB05012648FFF766F8CDF81080C4
:103F48000DEB05012348FFF75FF804970DEB05011A
:103F58001E48FFF759F804960DEB05011B48FFF7BB
:103F680053F8CDF810900DEB05011A48FFF74CF8FF
:103F78004FF4007304930DEB05011648FFF744F85E
:103F880004940DEB05011348FFF73EF84FF4005376
:103F980004930DEB05010D48FFF736F84FF4804305
:103FA80004930DEB05010948FFF72EF84FF4004381
:103FB80004930DEB05010548FFF726F809B0BDE8A5
:103FC800F08F00BF0010024000003110000C0140CB
:103FD80000100140000801402DE9F04F99B0754BE1
:103FE8009A6942F400629A619A6902F40062019245
:103FF800019A9A6942F400529A619B6903F400534A
:104008000293029B6C4EDFF8B891C6F8009000242A
:1040180074604FF02008C6F808804FF4FA6BC6F8B1
:104028000CB034617461B4613046FEF7E2FD1023D0
:104038001693179416A93046FEF710FF60230F93C6
:104048001094119408271297139414944FF4007342
:10405800159322460FA93046FEF71CFE04220FA92D
:104068003046FEF717FE3A460FA93046FEF712FE15
:104078004FF4006308934FF4806309930A94CDF8D2
:104088002C800C940D940E940DEB08013046FEF72D
:10409800B9FE4A4DDFF82CA1C5F800A06C60C5F840
:1040A8000880C5F80CB02C616C61AC612846FEF73D
:1040B800A0FDCDF858808023179316A92846FEF74F
:1040C800CDFE049418A9052341F8543D2846FEF76F
:1040D8004AFC60230F93109411941297139414942C
:1040E8004FF40073159322460FA92846FEF7D2FD18
:1040F80004220FA92846FEF7CDFD3A460FA9284607
:10410800FEF7C8FD4FF4006308934FF480630993EA
:104118000A94CDF82C800C940D940E940DEB0801A4
:104128002846FEF76FFEDAF8443023F40043CAF855
:104138004430D9F8443023F40043C9F844302146C8
:104148002846FEF723FE04212846FEF71FFE3946BF
:104158002846FEF71BFE21462846FEF741FE0421AD
:104168002846FEF73DFE39462846FEF739FE214629
:104178003046FEF70BFE04213046FEF707FE3946AF
:104188003046FEF703FE21463046FEF729FE04219D
:104198003046FEF725FE39463046FEF721FE2B68ED
:1041A80001221A633268136843F00103136019B0DF
:1041B800BDE8F08F00100240480200205C04002097
:1041C800002C0140003401402DE9F04186B0424EF8
:1041D800B36943F40073B361B36903F400730093E4
:1041E800009B3E4C3E4B23604FF48073A360002538
:1041F800E56065614FF44023E36165604FF00508B1
:10420800C4F810802046FFF757FA364A536843F43B
:104218008023536006A94FF4C02341F8043D20468B
:10422800FEF748FE012304930E220292039302A98B
:104238002046FFF7C9F802950227039702A92046EE
:10424800FFF7C2F804970B2702970323039302A9E9
:104258002046FFF7B9F80C2302930423039302A91D
:104268002046FFF7B1F80723049310230293CDF8F3
:104278000C8002A92046FFF7A7F82268936843F448
:10428800000343F480739360936843F001039360E1
:10429800736943F001037361736903F001030193C8
:1042A800019B114B1D60C3F80480104A9A60104AA4
:1042B800DA6040F6A2221A601A6842F001021A6017
:1042C8002A4629463846FEF733FE3846FEF764FE8E
:1042D80006B0BDE8F08100BF001002409403002042
:1042E8000024014000000140080002404C24014025
:1042F80008040020F0B585B0284B9A6942F4806222
:104308009A619B6903F480630093009B244C254BBE
:1043180023604FF48073A3600023E36063614FF46C
:104328006022E2616360052626612046FFF7C4F932
:10433800012303930F220192029301A92046FFF75C
:1043480043F80D2301930225029501A92046FFF7A2
:104358003BF803950A2301930327029701A92046F6
:10436800FFF732F80195042302930DEB0301204671
:10437800FFF72AF8072303930197029601A920461D
:10438800FFF722F823689A6842F480729A609A6864
:1043980042F001029A6005B0F0BD00BF0010024073
:1043A800C401002000280140FEE7000000B589B0E4
:1043B800002211461D20FEF7BBFD1D20FEF7ECFD77
:1043C8001F4BDA6942F00202DA61DB6903F002038B
:1043D8000193019B1B481C4B03604FF6FF1343607E
:1043E800002383606422C26003618361FEF7E8FBF7
:1043F800B0B908A94FF4805341F8103D1148FEF7B1
:104408002EFA90B900230293039302A90D48FEF7F0
:1044180025FD78B90B48FEF715FA09B05DF804FBDD
:104428004FF441710948FFF7BFFF40F20A310748CE
:10443800FFF7BAFF40F211310448FFF7B5FF00BF9C
:1044480000100240CC02002000040040D85A0008A6
:1044580038B51C4B00221A701B4B1C682046FCF711
:1044680049FF00220023FDF721FA48B16442132CCA
:10447800CCBF00240124FCB10025144B1D700FE0B3
:10448800132CCCBF00240124F5E7114B1B68002234
:104498005A620120FEF784FF0134312CF5DD013525
:1044A800072D03DC0B4B1D700024F6E700222021AA
:1044B8000948FEF7A8FEFEE7084B4FF47A721A6027
:1044C80038BD00BFD0000020BC040020C40000207C
:1044D800CC020020C000002000080140BC000020E1
:1044E80030B597B002250C95012310931023119332
:1044F8001395002414944FF4601315930CA8FDF73A
:1045080085FD0F230793089509944FF480630A9358
:104518000B94294607A8FDF79FFF01954FF44043E8
:10452800039301A8FEF77AFEFEF752F8084BA3FBA7
:1045380000308009FEF73CFD0420FEF74FFD2246BF
:1045480021464FF0FF30FEF7F3FC17B030BD00BF37
:10455800D34D6210000000002DE9F04F8DB0FEF73A
:10456800FFFE9F4CA36943F00103A361A36903F015
:1045780001030393039B0320FEF7C8FC00221146A6
:104588006FF00B00FEF7D4FC002211466FF00A0012
:10459800FEF7CEFC002211466FF00900FEF7C8FCBA
:1045A800002211466FF00400FEF7C2FC00221146FB
:1045B8006FF00300FEF7BCFC002211466FF001000B
:1045C800FEF7B6FC002211464FF0FF30FEF7B0FCB4
:1045D800FFF786FF636923F001036361FFF7DEFBE2
:1045E800FFF7FAFCFFF7F0FDFFF784FE0122202118
:1045F8007C48FEF708FE7C48FEF7C2FF7B48FEF7C2
:10460800BFFF082405E07A4B1C706420FEF7C8FE43
:10461800013C002CF7DA4FF0000A754B83F800A034
:10462800012204217348FEF7EEFD00F0F1FFFFF7C9
:104638004FFB714B188AFDF78FFA019001246F4BDD
:104648001C70FFF7B3FE6E4B1C70D3464CE2002083
:1046580067E2694B5B8A9BB2B3F5805F11D2664B08
:104668005B8A9BB2B3F5FA6F10D3634B588AA0F5F7
:10467800FA60FDF775FA6349FDF77AFBFDF78AFCE6
:1046880001E04FF49670604B18604CE20020FAE7A6
:10469800002062E2584BDB899BB2B3F5805F11D2F0
:1046A800554BDB899BB2B3F5FA6F10D3524BD889BF
:1046B800A0F5FA60FDF754FA5449FDF759FBFDF7E8
:1046C80069FC01E040F2DC50514B186047E20020E1
:1046D800FAE7504B1B7833B14F4B00221A604C4B12
:1046E8001A684E4B1A604B4B00221A7042E24FF484
:1046F8007A7442464B4630463946FCF7AFFC0646CC
:104708000F460022464BFDF7EFF880B932A3D3E9F4
:10471800002330463946FDF7C9F8002858D13046FD
:104728003946FDF7EBF8064603E03E4CE1E74FF467
:104738007A760AF13203A34214DDAAF1320AA245BD
:1047480010DA0BF13203B3420CDDABF1320BB34597
:1047580008DA354B1B68042B04D8344B1E606342BF
:10476800334A1360334B1A68334BA3FB0213DB083D
:1047780003EB830303EB83039A4269D002211948B0
:10478800FEF73AFD38B12D4B1B6823B92C4B1B683B
:10479800002B00F0B9802B4B1F682B493846FDF7DA
:1047A800D1FB002800F0CE80284BD3F8008040468B
:1047B800FCF7A0FD00220023FDF778F8002840F060
:1047C800BB80B8F1130F00F3BD80FFF741FED5E0C1
:1047D800144EAEE7AFF300800000000000408FC029
:1047E800001002400008014094030020C40100208A
:1047F800C0000020000C014008040020D000002068
:10480800B90000207777DF40CC040020F9C5B23F1B
:10481800C4040020B8000020C8040020B004002010
:1048280000408F4018FCFFFF68000020E4000020D3
:10483800E0000020A00400201F85EB51EC000020C0
:10484800E80000206C000020CCCC0642BC0400200C
:104858000198FCF761FD5EA3D3E90023FCF7B4FDE2
:10486800804689465E4F388AFDF776F9FCF754FD95
:1048780059A3D3E90023FCF7A7FD02460B4640469F
:104888004946FCF7EBFBFDF761F8054601905549F1
:10489800FDF7B0F85449FDF7B7F95449FDF7ACF8FE
:1048A8008046F98909B2002000F04EFE798A09B2E3
:1048B800012000F049FE31B2022000F045FE21B28D
:1048C800032000F041FEB98909B2042000F03CFE43
:1048D8004749484B1868FDF797F9FDF75BFB01B2AC
:1048E800052000F031FE2846FDF754FB01B20620F2
:1048F80000F02AFE4046FDF74DFB01B2072000F00C
:1049080023FE00F027FE39E700273B4B1F700AE023
:104918003A4B1B6800225A627D1C07EBD777781048
:10492800FEF73EFD2F4602213548FEF765FC0028BC
:10493800EED1FFF78DFD2EE7C8F10008B8F1130F8F
:104948007FF743AF2F493846FDF7FCFA58B12E4997
:104958003846FDF715FB30B12C4B05221A702C4B4D
:1049680006221A700AE02B4B1B6813F1640F21DA38
:10497800264B05221A70264B01221A702046FCF796
:10498800B9FC00220023FCF791FF002848D1322C03
:1049980049DC3046FCF7AEFC00220023FCF786FF1A
:1049A800002840F07581322E3DDC1B4A1368013324
:1049B80013603BE0194B1B881BB1013B174A13805E
:1049C800DCE70023114A1370114A1370D6E700BFC1
:1049D800AE47E17A14AEEF3F7B14AE47E17A843FED
:1049E8000804002000E0CE44083748BE33330F42A5
:1049F8000000C8426C000020D0000020CC0200203B
:104A08000008014000000C42CCCC0642C000002047
:104A1800C4000020BC040020A0040020BA0000202C
:104A28006342322BB5DDB24B00221A60B04B1B68D3
:104A3800B04A93420CD9B04A12784AB9AE4A032117
:104A48001170AE4A01211170AD4A4FF47A7111808C
:104A5800AC4A93420CD9A84A12784AB9A64A02210C
:104A68001170A64A01211170A54A4FF47A7111807C
:104A7800A54A934200F21181A44B1A68002A2DDD41
:104A8800013A1A60A24981FB0231D317C3EBE11343
:104A98004FF4C87101FB1323002B00F004819B4BDA
:104AA8001B68B3F5FA6F09DC934A03211170934A26
:104AB80001211170924A4FF47A711180B3F57A7F0F
:104AC80009DC8D4A022111708C4A012111708C4A2F
:104AD8004FF47A711180002B40F3F5808D4B1B68E1
:104AE80000225A62A246B3460520FEF759FC8A4BBB
:104AF8005B8A9BB2B3F5FA6FBFF4ABAD864B5B8AAA
:104B08009BB2B3F5FA6F3FF6A2AD834B5A8A588A27
:104B1800A0F5FA60FDF724F88049FDF729F9FDF7BB
:104B280039FA7F4B18607C4BDB899BB2B3F5FA6F7F
:104B3800BFF4B0AD784BDB899BB2B3F5FA6F3FF6A3
:104B4800A7AD754BDA89D889A0F5FA60FDF708F8A2
:104B58007449FDF70DF9FDF71DFA734B18606E4B9C
:104B6800DA89DB899BB2B3F57A7F7FF6B2AD6F4BFA
:104B780001221A706A4B1A6852421A606649CB8938
:104B88009BB2B3F5FA6F94BF002301236848037002
:104B98004B8A9BB2B3F5FA6F94BF00230123654992
:104BA8000B70624B1B7843B1634B1A605E4B1A68FB
:104BB800624B1A60624B00221A60624D2868FCF74B
:104BC80099FB45A3D3E90023FCF7FEFB06460F46F5
:104BD800594B1868FCF78EFB41A3D3E90023FCF777
:104BE800F3FB02460B4630463946FCF737FAFCF72A
:104BF80085FE04462860544D2868FCF77BFB36A3E5
:104C0800D3E90023FCF7E0FB06460F464B4B186838
:104C1800FCF770FB32A3D3E90023FCF7D5FB02466F
:104C28000B4630463946FCF719FAFCF767FE286050
:104C3800FCF760FB0022454BFCF7C6FB06460F4617
:104C48002046FCF757FB0022404BFCF7BDFB804693
:104C5800894602460B4630463946FCF7FDF90446BC
:104C68000D4600223A4BFCF73FFE00287FF43FAD8B
:104C78001DA3D3E9002320462946FCF717FE002888
:104C88007FF453AD20462946FCF738FE044630E54C
:104C98007342322B3FF7C7AE87E6154B00221A60E6
:104CA800FFF7D6FBE8E602EB82022A4B83FB0213EE
:104CB800D217C2EBA312284904A8FBF761FB04A88A
:104CC80000F08EFCEBE6114B00221A60FFF7C0FBE8
:104CD80004E700BFAFF30080CDCCCCCCCCCCEC3F0C
:104CE8009A9999999999B93F0000000000408FC09E
:104CF800A00400206A040100C0000020C4000020B5
:104D0800BA000020751E010080380100BC00002098
:104D18001F85EB51CC020020080400205555D540D2
:104D2800CC040020ABAAAA3FC4040020B80000208D
:104D3800A40400209C040020C8040020B004002023
:104D480068000020B4040020BC0400200000E03FFC
:104D580000408F40D34D6210E45A000808B52AE09D
:104D6800194B00225A639A63DA63596C21F40041A3
:104D78005964A3F500635A639A63DA63596C21F4A2
:104D880000415964114B1A60114B1A60114B1A708B
:104D9800114B06211960114B1A60114B1A60114B07
:104DA8001A60114B1A60114B1A60114B1A602021BE
:104DB8001048FEF728FA104B1B78002BD0D10E4B69
:104DC80001221A7008BD00BF00340140B40400205D
:104DD800BC040020D000002068000020E000002073
:104DE800E4000020E8000020EC000020C8040020B7
:104DF800B004002000080140B900002000000000B5
:104E0800774B02225A60774B1B68B3F57A7F5EDBDB
:104E18002DE9F041744B1A68744BA3FB02139B09EC
:104E28004FF47A7101FB13230BBB714C2068FCF71C
:104E380073FA65A3D3E90023FCF7C6FA06460F46C2
:104E48006C4B9889FCF788FE6B49FCF7DDFEFCF794
:104E580063FA5FA3D3E90023FCF7B6FA02460B46D0
:104E680030463946FCF7FAF8FCF770FD2060614BD4
:104E78005889624B1C68001BFCF73CFA56A3D3E91F
:104E88000023FCF7A1FA00220023FCF70FFD0028FD
:104E980052D1584B5889001BFCF72CFA4EA3D3E982
:104EA8000023FCF791FA0022554BFCF71DFD002862
:104EB80052D1544B1B68052B4ED8534B1B78002BF3
:104EC8004AD0524A536C43F40043536449E00133D7
:104ED800444A1360474A90884D490B68034403EBE2
:104EE800D3735B100B60D0884A490B68034403EB0B
:104EF800D3735B100B60108847490B68034403EBBE
:104F0800D3735B100B60508844490B68034403EB70
:104F1800D3735B100B60508938490B68034403EB6B
:104F2800D3735B100B6011893D4A13680B4403EB84
:104F3800D3735B10136070472E4B5889001BFCF726
:104F4800D9F925A3D3E90023FCF73EFA0022354B13
:104F5800FCF7ACFC0028ACD02C4A536C23F400437B
:104F68005364244B18892E4B1C68001BFCF7C2F9AC
:104F780019A3D3E90023FCF727FA00220023FCF742
:104F880095FC002852D11B4B1889001BFCF7B2F97D
:104F980011A3D3E90023FCF717FA0022184BFCF7FA
:104FA800A3FC002852D1174B1B68052B4ED8164B73
:104FB8001B78002B4AD01C4A536C43F400435364BB
:104FC80049E000BFAFF30080AE47E17A14AEEF3F8F
:104FD8007B14AE47E17A843F7B14AE47E17A943F75
:104FE80000000240D4000020C8000020D34D621009
:104FF8006C0000200804002017B9CE3C7000002087
:1050080000002E4068000020D0000020003401403D
:10501800780000207C000020800000208400002010
:105028007400002000002EC0002C0140904B18890D
:10503800001BFCF75FF98CA3D3E90023FCF7C4F944
:1050480000228C4BFCF732FC0028ACD08A4A536C07
:1050580023F40043536489498B6813F0200F0CBF75
:10506800012300238A6812F0400F0CBF012200229E
:10507800896811F0800F0CBF0125002580498868D8
:1050880010F4806F0CBF012000208C6814F4006FAE
:105098000CBF01240024896811F4805F02EB4502EB
:1050A80003EB4203774EF35C77490B600B6803F11F
:1050B80002030B600D68754B83FB0572A2EBE5726A
:1050C80002EB42024FEA4207A5EB07020A600CBF57
:1050D80002220022224400EB4202B05C6C4A1060BB
:1050E800106802301060106883FB0043A3EBE07384
:1050F80003EB43035C00031B136009685C48838867
:10510800644A12689A1AC388634800681B1A0529FA
:1051180034D8DFE801F0032326292C2FD31A5F4A5D
:1051280013605F4A1368013313605E4A14684CB316
:105138005D4AA2FB0312120B5C4909680131B2FBFC
:10514800F1F001FB1022EAB9B3FBF4F204FB1233CD
:10515800EBB910215648FEF75CF818E04F4B1A607F
:10516800DFE74E4B1A60DCE74C4A1360D9E74B4A3D
:105178001360D6E79B1A494A1360D2E7474B0022CF
:105188001A60CEE7002210214948FEF73CF8494B47
:10519800D3F800C03C4B1B68052B2BD8DFE803F085
:1051A8000312171C2226CCF1000064469C46424B91
:1051B8001968374B1B68052B52D8DFE803F01F3FEF
:1051C80043474B4E6446CCF1000C0020EFE76046A5
:1051D800CCF1000C0024EAE7CCF1000460464FF063
:1051E800000CE4E7CCF100040020E0E7CCF100007B
:1051F8000024DCE7002004468446D8E74E420F46E8
:1052080019462C4B1B68002B40F398802B4B1D68CC
:105218001D4B1B6805331D4A82FB03E2A2EBE372B8
:1052280002EB42024FEA420EA3EB0E02052A00F2FD
:10523800B980DFE802F0456A6F74797E0F4649420B
:105248000026DEE70E4649420027DAE74F420E46BF
:105258000021D6E74F420026D3E74E420027D0E789
:10526800002637463146CCE77B14AE47E17A943FB7
:105278000804002000002EC0002C0140000C014052
:1052880000100140F85A0008D8000020ABAAAA2A4A
:10529800DC000020780000207C000020CC000020EA
:1052A800C8000020C00000205917B7D1C400002052
:1052B80000080140E0000020E4000020E800002091
:1052C800C5F10008AE461546654474444044964B03
:1052D8001B68002B40F3D780944B1B68944A1268D4
:1052E80002F1050C934A82FB0CE2A2EBEC7202EB92
:1052F80042024FEA420EACEB0E02052A00F2F98098
:10530800DFE802F058A8ADB2B7BCAE466D424FF028
:105318000008D9E7A8466D424FF0000ED4E7C5F162
:10532800000EA8460025CFE7C5F1000E4FF0000893
:10533800CAE7C5F100084FF0000EC5E77E4B1D68AF
:10534800C5F1000E7D4B1A6801327A4B83FB02834C
:10535800A3EBE27303EB43034FEA4308A2EB080312
:10536800052B1AD8DFE803F00323060A0E14A84613
:105378001D46A9E7F0464FF0000EA5E7F046AE46F9
:105388000025A1E72B4675469E464FF000089BE78F
:10539800A84675464FF0000E96E74FF00008C6463F
:1053A800454691E74FF00008C64645468CE74FF062
:1053B800000889E7C3F100089E461346194407EB25
:1053C8000E0206EB080305F57A7540F2C676B5427B
:1053D80000F397800A2DB8BF0A25594E756304F566
:1053E8007A7440F2C675AC4200F38E800A2CB8BFBE
:1053F8000A24534DAC6300F57A7040F2C674A0429B
:1054080000F385800A28B8BF0A204D4CE06301F5F7
:105418007A7140F2C67081427CDC0A29B8BF0A2141
:105428004848416302F57A7240F2C6718A4274DCD8
:105438000A2AB8BF0A2243498A6303F57A7340F2FD
:10544800C67293426CDC0A2BB8BF0A233D4AD36369
:10545800BDE8F0819E465B424FF00008AEE79846F3
:105468005B424FF0000EA9E7C3F1000E98460023F7
:10547800A4E7C3F1000E4FF000089FE7C3F100084E
:105488004FF0000E9AE7294B1B68C3F1000E284A1B
:1054980012680132DFF89CC08CFB028CACEBE27C1A
:1054A8000CEB4C0C4FEA4C08A2EB080CBCF1050FB6
:1054B8001AD8DFE80CF00323060A0E149846634650
:1054C8007CE7F0464FF0000E78E7F0469E46002352
:1054D80074E71A46734696464FF000086EE79846FA
:1054E80073464FF0000E69E74FF00008C646434682
:1054F80064E74FF00008C64643465FE74FF00008F0
:105508005CE740F2C67568E740F2C67471E740F29E
:10551800C6707AE740F2C67182E740F2C6728AE73F
:1055280040F2C67392E700BFE4000020EC000020C0
:10553800DC000020ABAAAA2AE8000020D80000203E
:1055480000340140002C0140014B23F81010704733
:10555800340500201D4B1B6803B97047F0B587B0B0
:105568001B4F642200213846FAF7A2FE19490A881F
:10557800B1F802C0888800B2CC8824B20D892DB257
:105588004E8936B28B891BB2C98909B20591049339
:1055980003960295019400900FFA8CF312B20E490B
:1055A8003846FAF7EDFE0D4B5B686BB90B4C236878
:1055B80023F0010323603846FAF704FF6060E760D0
:1055C800236843F00103236007B0F0BD8800002082
:1055D800D004002034050020005B00081C000240B5
:1055E80010B50446FAF7EEFE82B221460548FEF7EA
:1055F80017FA2046FAF7E6FE82B221460248FEF77D
:105608000FFA10BD840100201C04002000000000D7
:1056180070B582B0304C402200212046FAF748FE8F
:105628002E4D602200212846FAF742FE4FF0FF3344
:10563800AB620126AE652A4B1868FBF76DFE24A302
:10564800D3E90023FBF7C0FE0022264BFBF7E6FF59
:10565800FCF77CF9A060A062234BDA6942F00402EF
:10566800DA61DB6903F004030193019B1F4C204BB3
:1056780023604FF4A07363600025A5604FF6FF73A5
:10568800E36025616561A5612046FDF799FA20462A
:10569800FDF7CBF82268D3683343D3602A463146F6
:1056A8001E20FDF745FC1E20FDF776FC2A46032147
:1056B8001720FDF73DFC1720FDF76EFC2A46032155
:1056C8002820FDF735FC2820FDF766FC02B070BDE8
:1056D800EA2E4454FB210940A80500204805002073
:1056E8008C0000200080564000100240E805002091
:1056F800000800402DE9F04F83B072B65D4B1B687F
:105708005D6A5D4BD3E900675C4B9B6803F0E0037F
:10571800DB43C3F342135A4A82F83330594B9B6830
:1057280003F4E053DB43C3F38223D37062B600244F
:1057380012E0554B03EB4413DA690132DA61620077
:10574800224411014E4B0B44DA78D2B21A71D3E9D4
:105758000201C3E904010134012C00F388806200CE
:1057680022441101464B0B441A79D2B2DB78DBB2E2
:105778009A42F0D0424B0B441B79002BDFD0404BB0
:1057880003EB010A0523CAF82430390441EA16411B
:10579800300440EA05020B46CAE90223DAE90201AD
:1057A800DAE90423801A80469AF804309AF803202C
:1057B800C3EBC3031344354A52F82320DAF82830E0
:1057C80003FB02F3CAF820302F4A6301D118019174
:1057D800D158DAF820000144D150D058FCF7C0F96C
:1057E800FCF7D8FB019AD2F808B0FCF7B9F959468A
:1057F800FCF70AFAFCF7CEFB019BD860C3F81880C7
:10580800DAF82030002B94D01F4B03EB4418D8F85B
:105818001800FCF7A1F9FBF77FFD02460B460020B4
:105828001B49FBF7FBFEFCF769F8D146DAF8203094
:1058380003FB00F0C8F80400D8F808A0D8F818004E
:10584800FCF78AF901465046FCF792FA8246D9F8E5
:105858002000FCF785F901465046FCF7D5F90D49BB
:10586800FCF7D2F9FCF796FBC8F8140067E703B019
:10587800BDE8F08FE8050020F0000020000C014092
:105888004805002000100140A80500202C5B0008F6
:1058980000400F410050C3471A4B1B681A6912F0A9
:1058A800010F2DD04DF804BD6FF001021A611649A1
:1058B800D1E900BC1BF101024CF10003C1E900234E
:1058C800002307E0114A02EB4312002151605161A5
:1058D80091610133012B10DC03EB430211010C4AE7
:1058E8000A44526A002AEDDD590019440801084AA1
:1058F8000244516A01395162EBE75DF804BB704715
:10590800704700BFE8050020F0000020A80500202F
:10591800480500207047FEE7FEE7FEE7FEE7704710
:105928007047704708B5FDF72DFDFDF768FB08BD0A
:1059380008B51B4B5B6913F4007303D04FF4007375
:10594800174A5361164A526912F4807F05D0144AE7
:105958004FF48071516143F40073114A526912F097
:10596800800F03D00E4A802151610B430C4A5269C3
:1059780012F0400F03D00A4A402151610B43084AF4
:10598800526912F0200F03D0054A202151610B43C0
:1059980013F4E75F00D108BDFFF7ACFEFBE700BFDB
:1059A8000004014008B5214B5B6913F4004303D0A0
:1059B8004FF400431D4A53611C4A526912F4804F48
:1059C80004D01A4A4FF4804151610B43174A526977
:1059D80012F4005F04D0154A4FF4005151610B4393
:1059E800124A526912F4805F04D0104A4FF4805171
:1059F80051610B430D4A526912F4006F04D00B4AEF
:105A08004FF4006151610B43084A526912F4806FE8
:105A180004D0064A4FF4806151610B4313F4E75FE9
:105A280000D108BDFFF766FEFBE700BF0004014098
:105A380008B50248FCF7BBFF08BD00BFCC02002038
:105A4800002103E00B4B5B58435004310A480B4BD1
:105A580042189A42F6D30A4A02E0002342F8043B6D
:105A6800084B9A42F9D3FEF70DF9FAF7FDFBFEF75A
:105A780073FD7047345C000800000020900000208F
:105A8800900000202C060020FEE70000F8B500BFBB
:105A9800F8BC08BC9E467047F8B500BFF8BC08BC07
:045AA8009E4670475F
:105AAC0002030405060708090A0B0C0D0E0F101053
:105ABC0001020000000000000000000001020304CD
:105ACC000607080900000000010203047372632F2B
